:020000040000FA
:0200000004D02A
:080008001000720ED36E0F0E02
:10001000C16E896A926A220E8A6E936A8B6AC00EDA
:10002000946E8C6A956A8D6A8D84966A0C0EAF6E9A
:10003000000EB86E240EAC6E900EAB6E036A038099
:10004000ABEC00F0720E9AEC05F0730E9AEC05F032
:10005000740E9AEC05F0A3EC05F0F3EC00F03E0E04
:100060009AEC05F08FEC05F038EC00F02FEF00F083
:10007000006E430AD8B400EF04F0040AD8B4FFEFCE
:1000800003F0520AD8B402EF04F000509AEC05F0E5
:10009000A3EC05F00050720AD8B40BEF04F01D0A6F
:1000A000D8B4AEEF03F0070A2CE00A0A2CE0530A9A
:1000B0002CE0030A33E0010A3AE0070A42E0010AB1
:1000C0004AE0030A51E0010A58E00F0A5FE0010A22
:1000D00066E0090A6CE0500A72E0410A7AE0570EC5
:1000E0009AEC05F0540E9AEC05F0460E9AEC05F0E9
:1000F0003F0E9AEC05F0A3EC05F0F3EC00F0A3EF53
:1001000005F00380120003901200066A080E056EC7
:10011000046A076A020E086E096A1200066A100E67
:10012000056E046A076A020E086E096A1200066A02
:10013000200E056E046A040E076E200E086E096A12
:100140001200066A400E056E046A040E076E200E49
:10015000086E096A1200066A800E056E046A076A54
:10016000200E086E096A1200010E066E056A046A06
:10017000076A200E086E096A1200020E066E056AF2
:10018000046A400E076E086A096A1200040E066EC1
:10019000056A046A400E076E086A096A1200080EB2
:1001A000066E056A046A076A086A096A1200100E78
:1001B000066E056A046A076A086A096A1200066A16
:1001C000040E056E046A076A020E086E060E096EBA
:1001D0001200066A080E056E046A076A020E086EAF
:1001E0000E0E096E1200480E9AEC05F0650E9AECA0
:1001F00005F06C0E9AEC05F0700E9AEC05F09FEC91
:1002000005F0A3EC05F0720E9AEC05F09FEC05F0FA
:10021000520E9AEC05F0650E9AEC05F0610E9AEC20
:1002200005F0640E9AEC05F0200E9AEC05F0450EF0
:100230009AEC05F0500E9AEC05F0520E9AEC05F08F
:100240004F0E9AEC05F04D0E9AEC05F0A3EC05F07C
:10025000620E9AEC05F09FEC05F0420E9AEC05F068
:10026000690E9AEC05F06E0E9AEC05F0610E9AECB0
:1002700005F0720E9AEC05F0790E9AEC05F0A3ECFD
:1002800005F0680E9AEC05F09FEC05F0480E9AEC2C
:1002900005F0650E9AEC05F0780E9AEC05F0A3ECEB
:1002A00005F06F0E9AEC05F09FEC05F0430E9AEC0A
:1002B00005F06F0E9AEC05F06E0E9AEC05F0660EE6
:1002C0009AEC05F0690E9AEC05F0670E9AEC05F0D1
:1002D000750E9AEC05F0720E9AEC05F0610E9AEC30
:1002E00005F0740E9AEC05F0690E9AEC05F06F0EAD
:1002F0009AEC05F06E0E9AEC05F0A3EC05F0600E9A
:100300009AEC05F09FEC05F0310E9AEC05F04B0EDF
:100310009AEC05F0200E9AEC05F0380E9AEC05F0F8
:10032000320E9AEC05F0530E9AEC05F0310E9AEC71
:1003300005F0380E9AEC05F0310E9AEC05F02C0E13
:100340009AEC05F0200E9AEC05F0520E9AEC05F0AE
:10035000590E9AEC05F0310E9AEC05F0310E9AEC3C
:1003600005F0330E9AEC05F0330E9AEC05F0200EF2
:100370009AEC05F0280E9AEC05F0350E9AEC05F093
:10038000310E9AEC05F0320E9AEC05F0420E9AEC22
:1003900005F0200E9AEC05F0540E9AEC05F0420E92
:1003A0009AEC05F0500E9AEC05F0320E9AEC05F03E
:1003B000380E9AEC05F0530E9AEC05F0340E9AECD8
:1003C00005F0320E9AEC05F04E0E9AEC05F0290E6F
:1003D0009AEC05F0A3EC05F0210E9AEC05F09FECE9
:1003E00005F0320E9AEC05F04B0E9AEC05F0200E5B
:1003F0009AEC05F0380E9AEC05F0320E9AEC05F006
:10040000530E9AEC05F0310E9AEC05F0390E9AEC89
:1004100005F0310E9AEC05F02C0E9AEC05F0200E4A
:100420009AEC05F0540E9AEC05F0500E9AEC05F09B
:10043000420E9AEC05F0320E9AEC05F0380E9AEC6A
:1004400005F04C0E9AEC05F0310E9AEC05F0360EE4
:100450009AEC05F0360E9AEC05F02C0E9AEC05F0AD
:10046000200E9AEC05F04D0E9AEC05F0420E9AEC37
:1004700005F0370E9AEC05F0310E9AEC05F0330ECC
:100480009AEC05F0380E9AEC05F0A3EC05F0310E6D
:100490009AEC05F09FEC05F0320E9AEC05F04B0E4D
:1004A0009AEC05F0200E9AEC05F0320E9AEC05F06D
:1004B000370E9AEC05F0430E9AEC05F0310E9AECEB
:1004C00005F0360E9AEC05F0A3EC05F0320E9AEC2E
:1004D00005F09FEC05F0340E9AEC05F04B0E9AEC0B
:1004E00005F0200E9AEC05F0320E9AEC05F0370E6E
:1004F0009AEC05F0430E9AEC05F0330E9AEC05F0F9
:10050000320E9AEC05F0A3EC05F0330E9AEC05F0F0
:100510009FEC05F0380E9AEC05F04B0E9AEC05F0C6
:10052000200E9AEC05F0320E9AEC05F0370E9AEC9C
:1005300005F0430E9AEC05F0360E9AEC05F0340EF9
:100540009AEC05F0A3EC05F0340E9AEC05F09FEC64
:1005500005F0310E9AEC05F0360E9AEC05F04B0ED4
:100560009AEC05F0200E9AEC05F0320E9AEC05F0AC
:10057000370E9AEC05F0430E9AEC05F0310E9AEC2A
:1005800005F0320E9AEC05F0380E9AEC05F0A3EC6B
:1005900005F0350E9AEC05F09FEC05F0330E9AEC61
:1005A00005F0320E9AEC05F04B0E9AEC05F0200E99
:1005B0009AEC05F0320E9AEC05F0370E9AEC05F045
:1005C000430E9AEC05F0320E9AEC05F0350E9AECDB
:1005D00005F0360E9AEC05F0A3EC05F0360E9AEC19
:1005E00005F09FEC05F0360E9AEC05F0340E9AEC0F
:1005F00005F04B0E9AEC05F0200E9AEC05F0320E49
:100600009AEC05F0370E9AEC05F0430E9AEC05F0E3
:10061000350E9AEC05F0310E9AEC05F0320E9AEC9C
:1006200005F0A3EC05F0370E9AEC05F09FEC05F011
:10063000310E9AEC05F0320E9AEC05F0380E9AEC79
:1006400005F04B0E9AEC05F0200E9AEC05F0320EF8
:100650009AEC05F0370E9AEC05F0430E9AEC05F093
:10066000300E9AEC05F0310E9AEC05F0300E9AEC53
:1006700005F0A3EC05F0380E9AEC05F09FEC05F0C0
:10068000320E9AEC05F0350E9AEC05F0360E9AEC27
:1006900005F04B0E9AEC05F0200E9AEC05F0320EA8
:1006A0009AEC05F0370E9AEC05F0430E9AEC05F043
:1006B000300E9AEC05F0320E9AEC05F0300E9AEC02
:1006C00005F0A3EC05F0390E9AEC05F09FEC05F06F
:1006D000350E9AEC05F0310E9AEC05F0320E9AECDC
:1006E00005F04B0E9AEC05F0200E9AEC05F0320E58
:1006F0009AEC05F0370E9AEC05F0430E9AEC05F0F3
:10070000300E9AEC05F0340E9AEC05F0300E9AECAF
:1007100005F0A3EC05F0300E9AEC05F09FEC05F027
:10072000310E9AEC05F04D0E9AEC05F0200E9AEC85
:1007300005F0320E9AEC05F0370E9AEC05F0430EF8
:100740009AEC05F0300E9AEC05F0380E9AEC05F0B4
:10075000300E9AEC05F0A3EC05F01200530E9AEC63
:1007600005F0690E9AEC05F07A0E9AEC05F0650E2C
:100770009AEC05F09FEC05F00650DFEC04F0055014
:10078000DFEC04F00450DFEC04F0A3EC05F0500EB5
:100790009AEC05F0770E9AEC05F0720E9AEC05F0E3
:1007A0009FEC05F00850DFEC04F0A3EC05F0500ED0
:1007B0009AEC05F0670E9AEC05F06D0E9AEC05F0D8
:1007C0009FEC05F00750DFEC04F0A3EC05F0430EBE
:1007D0009AEC05F0740E9AEC05F06C0E9AEC05F0AC
:1007E0009FEC05F00950DFEC04F0A3EC05F01200DB
:1007F00006C00FF005C00EF004C00DF01200038E0D
:10080000038C038A03820BEC04F003920398039A8F
:10081000039C039E120030EC04F0640E47EC04F0DD
:10082000F8EC03F057EC04F091EC04F083509FECEB
:1008300004F074EC04F00D06D8A00E06D8A00F0644
:100840000D500E100F10D8A416EF04F057EC04F062
:1008500098EC04F0FA0E47EC04F03BEC04F01200C4
:100860008D9486EC04F0FF0E956E848E09B28D8215
:1008700009B08D8012008B928B808B908C6A8D904A
:100880008D92849E956A220E8A6E8D841200006E6F
:10089000F90E016E4BEF04F04DEF04F00000000084
:1008A000012E4CEF04F0002E48EF04F012008B9262
:1008B0008B800A6A0B6A0C6A8B9009B462EC04F0B4
:1008C00086EF04F0006A6FEC04F06FEC04F06FEC5C
:1008D00004F06FEC04F0002E63EF04F012008B8242
:1008E00071EF04F08B9212008B820A2AD8B00B2A87
:1008F000D8B00C2A8B9209A686EF04F00A500C108F
:1009000005E10B50040A02E162EC04F00B380F0B16
:10091000006E0C38F00B001007100810220A8A6EC7
:10092000120003B2EDEC04F003B0A7EC04F01200E7
:1009300003B0ADEC04F003B21DEC05F0120003B0FF
:10094000B5EF04F003B256EF05F09AEF05F0100E84
:10095000106E000E116E126A1200106A010E116EF6
:10096000C4EC04F0D4EC04F01200006E1252D8B4BF
:10097000C4EC04F00050DFEC04F0122A12501018FE
:10098000D8B4D4EC04F012003A0EE9EC04F0136A87
:100990001050DFEC04F00B50DFEC04F00A50DFECF9
:1009A00004F01150DFEF04F0126A131C010FDFECAA
:1009B00004F00D0EE9EC04F00A0EE9EF04F0132642
:1009C000016E013801D801500F0BF60FD8B0070F98
:1009D0003A0F03B26BD09AEF05F0156A146A03BCA4
:1009E000F4EF04F0142A1200650E56EC05F0700EB8
:1009F00056EC05F0720E56EC05F06F0E56EC05F055
:100A00006D0E56EC05F02E0E56EC05F0680E03A0A8
:100A1000620E56EC05F0650E03A0690E56EC05F06B
:100A2000780E03A06E0E56EC05F0000E56EC05F0A5
:100A300044EC05F08FEC05F012001552D8A444ECFC
:100A400005F0040E9AEC05F08FEC05F003AC1200F3
:100A50008FEC05F0146A000E56EC05F01552FBE120
:100A60001200166A176A186A010E9AEC05F0145003
:100A70009AEC05F0141C9AEF05F01A0E68EC05F0DC
:100A80001A0E9AEC05F0152A15AE3DEF05F016503A
:100A900003BA17509AEC05F0185003BA9AEC05F017
:100AA000156A142A03AE8FEC05F01200026E15527F
:100AB000D8B431EC05F00250162603BA68EC05F004
:100AC00002509AEC05F0152A15BE44EC05F0120010
:100AD000171A000E17B0210A17B2420A17B4840A77
:100AE00017B6080A17B8310A17BA620A17BCC40A3F
:100AF00017BE880A181A1818181A17B0100A17B251
:100B0000200A17B4400A17B6810A17B8120A17BA92
:100B1000240A17BC480A17BE910A176E1200040077
:100B20009EAAFDD7AB50060B03E0AB98AB88F7D776
:100B3000AE50120004009EA8FDD7AD6E12003A0E12
:0E0B4000F9DF200EF7D70D0EF5DF0A0EF3D702
:020000040030CA
:0E000000E079FCE0FFF89AFFFFFFFFFFFFFF33
:00000001FF
