:020000040000FA
:0200000004D02A
:080008001000720ED36E0F0E02
:10001000C16E896A926A220E8A6E936A8B6AC00EDA
:10002000946E8C6A956A8D6A8D84966A0C0EAF6E9A
:10003000000EB86E240EAC6E900EAB6E036A038099
:10004000A5EC00F0720ED9EC02F0730ED9EC02F0C0
:10005000740ED9EC02F0E2EC02F03E0ED9EC02F0A4
:10006000CEEC02F036EC00F02DEF00F0006E430A0B
:10007000D8B43FEF01F0040AD8B43EEF01F0520AC1
:10008000D8B441EF01F00050D9EC02F0E2EC02F0FC
:100090000050720AD8B44AEF01F01D0AD8B4EDEF4F
:1000A00000F0070A28E00A0A28E0530A28E0030AB9
:1000B0002FE0010A36E0070A3EE0010A46E0030AA3
:1000C0004DE0010A54E00F0A5BE0010A62E0090A10
:1000D00068E0500A6EE0410A76E0570ED9EC02F073
:1000E000540ED9EC02F0460ED9EC02F03F0ED9ECDA
:1000F00002F0E2EF02F00380120003901200066AA1
:10010000080E056E046A076A020E086E096A12007C
:10011000066A100E056E046A076A020E086E096A06
:100120001200066A200E056E046A040E076E200E89
:10013000086E096A1200066A400E056E046A040E13
:10014000076E200E086E096A1200066A800E056EA0
:10015000046A076A200E086E096A1200010E066E14
:10016000056A046A076A200E086E096A1200020E08
:10017000066E056A046A400E076E086A096A120074
:10018000040E066E056A046A400E076E086A096A64
:100190001200080E066E056A046A076A086A096A90
:1001A0001200100E066E056A046A076A086A096A78
:1001B0001200066A040E056E046A076A020E086ED3
:1001C000060E096E1200066A080E056E046A076ABA
:1001D000020E086E0E0E096E1200530ED9EC02F0DC
:1001E000690ED9EC02F07A0ED9EC02F0650ED9EC6A
:1001F00002F0DEEC02F006501EEC02F005501EECA0
:1002000002F004501EEC02F0E2EC02F0500ED9ECC9
:1002100002F0770ED9EC02F0720ED9EC02F0DEECAF
:1002200002F008501EEC02F0E2EC02F0500ED9ECA5
:1002300002F0670ED9EC02F06D0ED9EC02F0DEECA4
:1002400002F007501EEC02F0E2EC02F0430ED9EC93
:1002500002F0740ED9EC02F06C0ED9EC02F0DEEC78
:1002600002F009501EEC02F0E2EC02F0120006C0AF
:100270000FF005C00EF004C00DF01200038E038CC9
:10028000038A03824AEC01F003920398039A039CC9
:10029000039E12006FEC01F0640E86EC01F037EC67
:1002A00001F096EC01F0D0EC01F08350DEEC01F0AF
:1002B000B3EC01F00D06D8A00E06D8A00F060D5025
:1002C0000E100F10D8A455EF01F096EC01F0D7EC0A
:1002D00001F0FA0E86EC01F07AEC01F012008D9438
:1002E000C5EC01F0FF0E956E848E09B28D8209B0C7
:1002F0008D8012008B928B808B908C6A8D908D926A
:10030000849E956A220E8A6E8D841200006EF90E0C
:10031000016E8AEF01F08CEF01F000000000012E69
:100320008BEF01F0002E87EF01F012008B928B8093
:100330000A6A0B6A0C6A8B9009B4A1EC01F0C5EF54
:1003400001F0006AAEEC01F0AEEC01F0AEEC01F0B1
:10035000AEEC01F0002EA2EF01F012008B82B0EFA4
:1003600001F08B9212008B820A2AD8B00B2AD8B0E7
:100370000C2A8B9209A6C5EF01F00A500C1005E17A
:100380000B50040A02E1A1EC01F00B380F0B006ED8
:100390000C38F00B001007100810220A8A6E1200A9
:1003A00003B22CEC02F003B0E6EC01F0120003B053
:1003B000ECEC01F003B25CEC02F0120003B0F4EFDD
:1003C00001F003B295EF02F0D9EF02F0100E106EBB
:1003D000000E116E126A1200106A010E116E03EC0B
:1003E00002F013EC02F01200006E1252D8B403ECCB
:1003F00002F000501EEC02F0122A12501018D8B46D
:1004000013EC02F012003A0E28EC02F0136A1050BE
:100410001EEC02F00B501EEC02F00A501EEC02F033
:1004200011501EEF02F0126A131C010F1EEC02F0B5
:100430000D0E28EC02F00A0E28EF02F01326016ED2
:10044000013801D801500F0BF60FD8B0070F3A0F43
:1004500003B26BD0D9EF02F0156A146A03BC33EF14
:1004600002F0142A1200650E95EC02F0700E95EC65
:1004700002F0720E95EC02F06F0E95EC02F06D0E2C
:1004800095EC02F02E0E95EC02F0680E03A0620EC1
:1004900095EC02F0650E03A0690E95EC02F0780E63
:1004A00003A06E0E95EC02F0000E95EC02F083ECCA
:1004B00002F0CEEC02F012001552D8A483EC02F048
:1004C000040ED9EC02F0CEEC02F003AC1200CEEC3C
:1004D00002F0146A000E95EC02F01552FBE11200D6
:1004E000166A176A186A010ED9EC02F01450D9EC9A
:1004F00002F0141CD9EF02F01A0EA7EC02F01A0E4B
:10050000D9EC02F0152A15AE7CEF02F0165003BAB2
:100510001750D9EC02F0185003BAD9EC02F0156A62
:10052000142A03AECEEC02F01200026E1552D8B4BB
:1005300070EC02F00250162603BAA7EC02F002504B
:10054000D9EC02F0152A15BE83EC02F01200171A3E
:10055000000E17B0210A17B2420A17B4840A17B660
:10056000080A17B8310A17BA620A17BCC40A17BEBC
:10057000880A181A1818181A17B0100A17B2200A81
:1005800017B4400A17B6810A17B8120A17BA240A14
:1005900017BC480A17BE910A176E120004009EAAE3
:1005A000FDD7AB50060B03E0AB98AB88F7D7AE5046
:1005B000120004009EA8FDD7AD6E12003A0EF9DFBE
:0C05C000200EF7D70D0EF5DF0A0EF3D762
:020000040030CA
:0E000000E079FCE0FFF89AFFFFFFFFFFFFFF33
:00000001FF
