:020000040000FA
:0200000004D02A
:080008001000720ED36E0F0E02
:10001000C16E896A926A220E8A6E936A8B6AC00EDA
:10002000946E8C6A956A8D6A8D84966A0C0EAF6E9A
:10003000000EB86E240EAC6E900EAB6E036A038099
:10004000ABEC00F0720EB3EC05F0730EB3EC05F000
:10005000740EB3EC05F0BCEC05F0F3EC00F03E0ED2
:10006000B3EC05F0A8EC05F038EC00F02FEF00F051
:10007000006E430AD8B400EF04F0040AD8B4FFEFCE
:1000800003F0520AD8B402EF04F00050B3EC05F0CC
:10009000BCEC05F00050720AD8B40BEF04F01D0A56
:1000A000D8B4AEEF03F0070A2CE00A0A2CE0530A9A
:1000B0002CE0030A33E0010A3AE0070A42E0010AB1
:1000C0004AE0030A51E0010A58E00F0A5FE0010A22
:1000D00066E0090A6CE0500A72E0410A7AE0570EC5
:1000E000B3EC05F0540EB3EC05F0460EB3EC05F09E
:1000F0003F0EB3EC05F0BCEC05F0F3EC00F0BCEF08
:1001000005F00380120003901200066A080E056EC7
:10011000046A076A020E086E096A1200066A100E67
:10012000056E046A076A020E086E096A1200066A02
:10013000200E056E046A040E076E200E086E096A12
:100140001200066A400E056E046A040E076E200E49
:10015000086E096A1200066A800E056E046A076A54
:10016000200E086E096A1200010E066E056A046A06
:10017000076A200E086E096A1200020E066E056AF2
:10018000046A400E076E086A096A1200040E066EC1
:10019000056A046A400E076E086A096A1200080EB2
:1001A000066E056A046A076A086A096A1200100E78
:1001B000066E056A046A076A086A096A1200066A16
:1001C000040E056E046A076A020E086E060E096EBA
:1001D0001200066A080E056E046A076A020E086EAF
:1001E0000E0E096E1200480EB3EC05F0650EB3EC6E
:1001F00005F06C0EB3EC05F0700EB3EC05F0B8EC46
:1002000005F0BCEC05F0720EB3EC05F0B8EC05F0AF
:10021000520EB3EC05F0650EB3EC05F0610EB3ECD5
:1002200005F0640EB3EC05F0200EB3EC05F0450EBE
:10023000B3EC05F0500EB3EC05F0520EB3EC05F044
:100240004F0EB3EC05F04D0EB3EC05F0BCEC05F031
:10025000620EB3EC05F0B8EC05F0420EB3EC05F01D
:10026000690EB3EC05F06E0EB3EC05F0610EB3EC65
:1002700005F0720EB3EC05F0790EB3EC05F0BCECB2
:1002800005F0680EB3EC05F0B8EC05F0480EB3ECE1
:1002900005F0650EB3EC05F0780EB3EC05F0BCECA0
:1002A00005F06F0EB3EC05F0B8EC05F0430EB3ECBF
:1002B00005F06F0EB3EC05F06E0EB3EC05F0660EB4
:1002C000B3EC05F0690EB3EC05F0670EB3EC05F086
:1002D000750EB3EC05F0720EB3EC05F0610EB3ECE5
:1002E00005F0740EB3EC05F0690EB3EC05F06F0E7B
:1002F000B3EC05F06E0EB3EC05F0BCEC05F0600E4F
:10030000B3EC05F0B8EC05F0310EB3EC05F04B0E94
:10031000B3EC05F0200EB3EC05F0380EB3EC05F0AD
:10032000320EB3EC05F0530EB3EC05F0310EB3EC26
:1003300005F0380EB3EC05F0310EB3EC05F02C0EE1
:10034000B3EC05F0200EB3EC05F0520EB3EC05F063
:10035000590EB3EC05F0310EB3EC05F0310EB3ECF1
:1003600005F0330EB3EC05F0330EB3EC05F0200EC0
:10037000B3EC05F0280EB3EC05F0350EB3EC05F048
:10038000310EB3EC05F0320EB3EC05F0420EB3ECD7
:1003900005F0200EB3EC05F0540EB3EC05F0420E60
:1003A000B3EC05F0500EB3EC05F0320EB3EC05F0F3
:1003B000380EB3EC05F0530EB3EC05F0340EB3EC8D
:1003C00005F0320EB3EC05F04E0EB3EC05F0290E3D
:1003D000B3EC05F0BCEC05F0210EB3EC05F0B8EC85
:1003E00005F0320EB3EC05F04B0EB3EC05F0200E29
:1003F000B3EC05F0380EB3EC05F0320EB3EC05F0BB
:10040000530EB3EC05F0310EB3EC05F0390EB3EC3E
:1004100005F0310EB3EC05F02C0EB3EC05F0200E18
:10042000B3EC05F0540EB3EC05F0500EB3EC05F050
:10043000420EB3EC05F0320EB3EC05F0380EB3EC1F
:1004400005F04C0EB3EC05F0310EB3EC05F0360EB2
:10045000B3EC05F0360EB3EC05F02C0EB3EC05F062
:10046000200EB3EC05F04D0EB3EC05F0420EB3ECEC
:1004700005F0370EB3EC05F0310EB3EC05F0330E9A
:10048000B3EC05F0380EB3EC05F0BCEC05F0310E22
:10049000B3EC05F0B8EC05F0320EB3EC05F04B0E02
:1004A000B3EC05F0200EB3EC05F0320EB3EC05F022
:1004B000370EB3EC05F0430EB3EC05F0310EB3ECA0
:1004C00005F0360EB3EC05F0BCEC05F0320EB3ECE3
:1004D00005F0B8EC05F0340EB3EC05F04B0EB3ECC0
:1004E00005F0200EB3EC05F0320EB3EC05F0370E3C
:1004F000B3EC05F0430EB3EC05F0330EB3EC05F0AE
:10050000320EB3EC05F0BCEC05F0330EB3EC05F0A5
:10051000B8EC05F0380EB3EC05F04B0EB3EC05F07B
:10052000200EB3EC05F0320EB3EC05F0370EB3EC51
:1005300005F0430EB3EC05F0360EB3EC05F0340EC7
:10054000B3EC05F0BCEC05F0340EB3EC05F0B8EC00
:1005500005F0310EB3EC05F0360EB3EC05F04B0EA2
:10056000B3EC05F0200EB3EC05F0320EB3EC05F061
:10057000370EB3EC05F0430EB3EC05F0310EB3ECDF
:1005800005F0320EB3EC05F0380EB3EC05F0BCEC20
:1005900005F0350EB3EC05F0B8EC05F0330EB3EC16
:1005A00005F0320EB3EC05F04B0EB3EC05F0200E67
:1005B000B3EC05F0320EB3EC05F0370EB3EC05F0FA
:1005C000430EB3EC05F0320EB3EC05F0350EB3EC90
:1005D00005F0360EB3EC05F0BCEC05F0360EB3ECCE
:1005E00005F0B8EC05F0360EB3EC05F0340EB3ECC4
:1005F00005F04B0EB3EC05F0200EB3EC05F0320E17
:10060000B3EC05F0370EB3EC05F0430EB3EC05F098
:10061000350EB3EC05F0310EB3EC05F0320EB3EC51
:1006200005F0BCEC05F0370EB3EC05F0B8EC05F0C6
:10063000310EB3EC05F0320EB3EC05F0380EB3EC2E
:1006400005F04B0EB3EC05F0200EB3EC05F0320EC6
:10065000B3EC05F0370EB3EC05F0430EB3EC05F048
:10066000300EB3EC05F0310EB3EC05F0300EB3EC08
:1006700005F0BCEC05F0380EB3EC05F0B8EC05F075
:10068000320EB3EC05F0350EB3EC05F0360EB3ECDC
:1006900005F04B0EB3EC05F0200EB3EC05F0320E76
:1006A000B3EC05F0370EB3EC05F0430EB3EC05F0F8
:1006B000300EB3EC05F0320EB3EC05F0300EB3ECB7
:1006C00005F0BCEC05F0390EB3EC05F0B8EC05F024
:1006D000350EB3EC05F0310EB3EC05F0320EB3EC91
:1006E00005F04B0EB3EC05F0200EB3EC05F0320E26
:1006F000B3EC05F0370EB3EC05F0430EB3EC05F0A8
:10070000300EB3EC05F0340EB3EC05F0300EB3EC64
:1007100005F0BCEC05F0300EB3EC05F0B8EC05F0DC
:10072000310EB3EC05F04D0EB3EC05F0200EB3EC3A
:1007300005F0320EB3EC05F0370EB3EC05F0430EC6
:10074000B3EC05F0300EB3EC05F0380EB3EC05F069
:10075000300EB3EC05F0BCEC05F01200530EB3EC18
:1007600005F0690EB3EC05F07A0EB3EC05F0650EFA
:10077000B3EC05F0B8EC05F00650F8EC04F00550C9
:10078000F8EC04F00450F8EC04F0BCEC05F0500E6A
:10079000B3EC05F0770EB3EC05F0720EB3EC05F098
:1007A000B8EC05F00850F8EC04F0BCEC05F0500E85
:1007B000B3EC05F0670EB3EC05F06D0EB3EC05F08D
:1007C000B8EC05F00750F8EC04F0BCEC05F0430E73
:1007D000B3EC05F0740EB3EC05F06C0EB3EC05F061
:1007E000B8EC05F00950F8EC04F0BCEC05F0120090
:1007F00006C00FF005C00EF004C00DF01200038E0D
:10080000038C038A03820BEC04F003920398039A8F
:10081000039C039E120030EC04F0640E47EC04F0DD
:10082000F8EC03F057EC04F092EC04F08350A0ECE9
:1008300004F075EC04F00D06D8A00E06D8A00F0643
:100840000D500E100F10D8A416EF04F057EC04F062
:1008500099EC04F0FA0E47EC04F03BEC04F01200C3
:100860008D9487EC04F0FF0E956E848E09B28D8214
:1008700009B08D8012008B928B808B908C6A8D904A
:100880008D92849E956A220E8A6E8D841200006E6F
:10089000F90E016E4BEF04F04DEF04F00000000084
:1008A000012E4CEF04F0002E48EF04F012008B9262
:1008B0008B800A6A0B6A0C6A196A8B9009B463EC24
:1008C00004F087EF04F0006A70EC04F070EC04F0C0
:1008D00070EC04F070EC04F0002E64EF04F01200F1
:1008E0008B8272EF04F08B9212008B820A2AD8B0AE
:1008F0000B2AD8B00C2A8B9209A687EF04F00A5075
:100900000C1005E10B50040A02E163EC04F00B3813
:100910000F0B006E0C38F00B001007100810220AA5
:100920008A6E120003B206EC05F003B0A8EC04F0E6
:10093000120003B0AEEC04F003B236EC05F0120086
:1009400003B0C7EF04F003B26FEF05F0B3EF05F0AB
:10095000100E106E000E116E126A1200106A010E57
:10096000116EDDEC04F0EDEC04F01200020E106EDE
:10097000040E116EDDEC04F0000EF8EC04F00C50E7
:10098000F8EC04F0EDEC04F0A8EC04F01200006EBA
:100990000C50195CD8A4B6EC04F00C50196E12522D
:1009A000D8B4DDEC04F00050F8EC04F0122A125038
:1009B0001018D8B4EDEC04F012003A0E02EC05F079
:1009C000136A1050F8EC04F00B50F8EC04F00A50E5
:1009D000F8EC04F01150F8EF04F0126A131C010F48
:1009E000F8EC04F00D0E02EC05F00A0E02EF05F033
:1009F0001326016E013801D801500F0BF60FD8B045
:100A0000070F3A0F03B26BD0B3EF05F0156A146A03
:100A100003BC0DEF05F0142A1200650E6FEC05F013
:100A2000700E6FEC05F0720E6FEC05F06F0E6FEC50
:100A300005F06D0E6FEC05F02E0E6FEC05F0680EF4
:100A400003A0620E6FEC05F0650E03A0690E6FEC5B
:100A500005F0780E03A06E0E6FEC05F0000E6FEC43
:100A600005F05DEC05F0A8EC05F012001552D8A4D5
:100A70005DEC05F0040EB3EC05F0A8EC05F003AC5A
:100A80001200A8EC05F0146A000E6FEC05F0155288
:100A9000FBE11200166A176A186A010EB3EC05F042
:100AA0001450B3EC05F0141CB3EF05F01A0E81ECF2
:100AB00005F01A0EB3EC05F0152A15AE56EF05F049
:100AC000165003BA1750B3EC05F0185003BAB3EC44
:100AD00005F0156A142A03AEA8EC05F01200026EA8
:100AE0001552D8B44AEC05F00250162603BA81EC30
:100AF00005F00250B3EC05F0152A15BE5DEC05F0CB
:100B00001200171A000E17B0210A17B2420A17B4C2
:100B1000840A17B6080A17B8310A17BA620A17BC4E
:100B2000C40A17BE880A181A1818181A17B0100A1B
:100B300017B2200A17B4400A17B6810A17B8120A6A
:100B400017BA240A17BC480A17BE910A176E12007A
:100B500004009EAAFDD7AB50060B03E0AB98AB8810
:100B6000F7D7AE50120004009EA8FDD7AD6E12005C
:100B70003A0EF9DF200EF7D70D0EF5DF0A0EF3D788
:020000040030CA
:0E000000E079FCE0FFF89AFFFFFFFFFFFFFF33
:00000001FF
